:100000000C942A000C9434000C9434000C943400AA
:100010000C9434000C9434000C9434000C94340090
:100020000C9434000C9434000C9434000C94340080
:100030000C9434000C9434000C9434000C94340070
:100040000C9434000C9434000C9434000C94340060
:100050000C94340011241FBECFE5D8E0DEBFCDBF25
:100060000E9436000C9466000C940000BB9A83B783
:10007000886483BF83B7806383BF83B7816083BF96
:1000800085E08CBF8FE78CBF8FEF8CBF95E080E061
:100090008CBFEFEFF5E33197F1F700C000008F5F01
:1000A0008F3FB1F78CBFEFEFF5E33197F1F700C069
:1000B00000008150B9F79CBFFFEF2FEB31E2F15008
:1000C00020403040E1F700C00000E1CFF894FFCFBE
:00000001FF
