:100000000C942A000C94A1000C94B9000C94C70025
:100010000C9447000C94DF000C9447000C944700AC
:100020000C9447000C9447000C9470000C9447000B
:100030000C9447000C9447000C9447000C94470024
:100040000C9447000C9447000C9447000C94470014
:100050000C94470011241FBECFE5D8E0DEBFCDBF12
:1000600010E0A0E6B0E0E4EBF3E002C005900D92F2
:10007000A237B107D9F720E0A2E7B0E001C01D9296
:10008000AB37B207E1F70E940D010C94D8010C9434
:1000900000008AB38F678ABB8BB38F678BBB84B337
:1000A000876084BB85B3876085BB8A988B98BA9834
:1000B000BF9A929A939AC29A83B7886083BF83B794
:1000C000856083BF85E38CBF89B7826089BF85B5B2
:1000D000866085BD89B7806489BF85E084BD089549
:1000E0001F920F920FB60F9211248F93EF93FF93ED
:1000F00080916000809585BB80916000813019F40B
:10010000E091770009C0823019F4E091780004C0D2
:10011000843039F4E0917900F0E0ED59FF4F8081AF
:100120008BBB80916000880F853008F081E0809360
:100130006000FF91EF918F910F900FBE0F901F9075
:1001400018951F920F920FB60F9211248F939F93C1
:1001500081E090E0909376008093750010926200A9
:10016000109261009F918F910F900FBE0F901F9082
:1001700018951F920F920FB60F92112410927600CD
:10018000109275000F900FBE0F901F9018951F9240
:100190000F920FB60F9211248F939F9381E090E0FE
:1001A0009093620080936100109276001092750027
:1001B0009F918F910F900FBE0F901F9018951F92D7
:1001C0000F920FB60F9211248F939F93809172001C
:1001D0008F5F80937200809172008D37B9F48091A7
:1001E000750090917600019779F480917300909159
:1001F0007400892B49F080917300909174000197ED
:100200009093740080937300109272009F918F916D
:100210000F900FBE0F901F9018950E94490087B154
:10022000876487B986B1876886B9789485B7826014
:1002300085BF85B7886085BF8BB780648BBF8BB760
:1002400080688BBF8BB780628BBF1092770088E08D
:1002500080937800809379002FEF5FE584E521504B
:1002600050408040E1F700C0000083E080937700B9
:1002700085E08093780089E0809379009FEF2FE5F7
:1002800054E5915020405040E1F700C00000C7986D
:100290008FEF9FE723E4815090402040E1F700C0BA
:1002A0000000C79A2AE030E0E4E6F0E0C1E04CE963
:1002B000369A8091610090916200019799F4369985
:1002C000FECF84B195B190937400809373008091B8
:1002D000730090917400B9010E94B0017093740092
:1002E000609373008091730090917400892B41F4A6
:1002F0008091610090916200892B11F4C79801C030
:10030000C79A8091730090917400BF010E94B00160
:10031000611103C01092770002C0C09377008091F2
:100320007300909174004603B0011124860F971F4B
:10033000B9010E94B00160937800809173009091A0
:100340007400B9010E94B001809379005FEF8FEAD9
:1003500091E0515080409040E1F700C00000A8CFEC
:1003600097FB072E16F4009407D077FD09D00E9462
:10037000C40107FC05D03EF4909581959F4F0895E8
:10038000709561957F4F0895AA1BBB1B51E107C073
:10039000AA1FBB1FA617B70710F0A61BB70B881F15
:1003A000991F5A95A9F780959095BC01CD010895A4
:0403B000F894FFCFEF
:1003B400010100C0F9A4B0999282D8809000000095
:0203C400000037
:00000001FF
