:1000000012C019C018C017C016C015C014C013C044
:1000100012C011C010C00FC00EC00DC00CC00BC06C
:100020000AC009C008C011241FBECFE5D4E0DEBF5E
:10003000CDBF15D029C0E4CF99990FC02FEF89EF1C
:1000400090E0215080409040E1F700C0000083B371
:100050008695817091E08927089580E00895A09A9F
:10006000A89AA198A99AC1E0E7DF8823E9F385B3AC
:100070008C2785BB2FEF80E792E021508040904095
:0C008000E1F700C00000F0CFF894FFCFC3
:00000001FF
