:100000000C9434000C943E000C943E000C943E0082
:100010000C943E000C943E000C943E000C943E0068
:100020000C943E000C943E000C943E000C943E0058
:100030000C943E000C943E000C943E000C943E0048
:100040000C943E000C943E000C943E000C943E0038
:100050000C943E0061006A006F0076007B00800017
:1000600086008E0094009E0011241FBECFE5D8E0CC
:10007000DEBFCDBF0E94C5000C94AB010C94000004
:10008000D89AD99ADA9ADB9ADC9ADD9ADE9A0895A0
:10009000D09AD19AD29AD39AD49AD59AD69A0E94C3
:1000A000400084B3806F84BB85B3806F85BB0895A7
:1000B0008A30910508F04AC0FC01E65DFF4F0C94C0
:1000C00091010E944000D898D998DA98DB98DC9882
:1000D000DD9808950E944000D998DA9808950E940A
:1000E0004000D898D998DE98DC982FC00E94400034
:1000F000D898D99809C00E944000DD98DE9811C0B8
:100100000E944000D898DD98DE9806C00E9440000A
:10011000D898DD98DE98DC98DA9817C00E944000E5
:10012000D898DA98D99808950E944000D898DD9818
:10013000DE98DA98DB98D998DC9808950E94400000
:10014000D898DD98DE98DA98D998DB9808958230AF
:10015000910569F01CF4019739F0089583309105F9
:1001600051F0049769F00895AF98AE9A02C0AE9826
:10017000AF9AAD9A03C0AD98AF9AAE9AAC9A089573
:10018000AC98AF9AAE9AAD9A0895CF93DF93CDB75E
:10019000DEB728970FB6F894DEBF0FBECDBF0E9422
:1001A000480087B1876487B986B1876886B900E05F
:1001B00010E02FEF4FED80E1215040408040E1F70B
:1001C00000C000000F5F1F4FC8010E94A700C801B8
:1001D0000E9458009FEFEFEDF0E19150E040F040B9
:1001E000E1F700C000000430110519F788EE482E31
:1001F00083E0582E66246394712C28E1C22E2CEFE4
:10020000D22E34E6A32EB12C4AE0842E912C369ABD
:100210003699FECF24B135B1C901B2010E947D01EA
:10022000161617061CF01A82198202C07A82698299
:100230006C9DC0016D9D900D7C9D900D1124280F2B
:10024000391FC901B5010E947D017C836B834CE994
:100250004603C001479F900D1124280F391FC90183
:10026000B4010E947D017E836D8346EF4603C00189
:10027000479F900D1124280F391F38872F83CE01F7
:1002800001967C0100E010E0ECECFAE03197F1F728
:1002900000C00000F701819191917F010E945800F8
:1002A0000F5F1F4FC8010E94A70089819A81892B87
:1002B00009F4AF9A89819A81892B31F48B819C81D1
:1002C000892B11F4AF9AAE9A89819A81892B59F4BE
:1002D0008B819C81892B39F48D819E81892B19F426
:1002E000AF9AAE9AAD9A8CEC9AE00197F1F700C004
:1002F00000000430110541F68ACF97FB072E16F453
:10030000009407D077FD09D00E94970107FC05D023
:100310003EF4909581959F4F0895709561957F4F1C
:100320000895EE0FFF1F0590F491E02D0994AA1B8C
:10033000BB1B51E107C0AA1FBB1FA617B70710F0D0
:10034000A61BB70B881F991F5A95A9F78095909502
:0A035000BC01CD010895F894FFCF21
:00000001FF
