:100000000C942A000C943C000C943C000C943C0092
:100010000C943C000C94C9000C943C000C943C00E3
:100020000C943C000C943C000C943C000C943C0060
:100030000C943C000C943C000C943C000C943C0050
:100040000C943C000C943C000C943C000C943C0040
:100050000C943C0011241FBECFE5D8E0DEBFCDBF1D
:1000600020E0A0E6B0E001C01D92A736B207E1F79C
:100070000E943E000C9414010C940000BB9A83B7BC
:10008000886483BF83B7806383BF83B7816083BF86
:100090008FEF8CBF84B3876084BB81B3846C81BBDA
:1000A00085B3876085BB82B3846C82BB85B5877B53
:1000B00085BD88E384BD85B5816085BD89B78064D1
:1000C00089BF789480E08CBF809361008093620048
:1000D0008093650080936300809366008093640042
:1000E0008B3028F0E6E6F0E23197F1F705C0EFEF4C
:1000F000F1EA3197F1F700C000008F5F8F3F19F7E9
:100100008CBF809361008093620080936500809330
:1001100063008093660080936400FFEF2FED30E171
:10012000F15020403040E1F700C000008CBF8093C8
:1001300061008093620080936500809363008093E8
:100140006600809364008B3028F0E6E6F0E2319799
:10015000F1F705C0EFEFF1EA3197F1F700C00000C9
:10016000815021F71CBE1092610010926200109223
:100170006500109263001092660010926400FFEF19
:100180002FED30E1F15020403040E1F700C0000099
:1001900099CF1F920F920FB60F9211248F939F93B6
:1001A00088E384BD8091610090916000981710F001
:1001B000A89A01C0A8988091620090916000981759
:1001C00010F0A99A01C0A9988091650090916000F3
:1001D000981710F0AA9A01C0AA9880916300909194
:1001E0006000981710F0979A01C097988091660068
:1001F00090916000981710F0969A01C0969880919F
:10020000640090916000981710F0929A01C0929843
:10021000809160008F5F809360009F918F910F901D
:0C0220000FBE0F901F901895F894FFCFB0
:00000001FF
