:100000000C9430000C9442000C9442000C9442007A
:100010000C9442000C9442000C9442000C94420058
:100020000C9442000C9442000C9459000C94420031
:100030000C9442000C9442000C9442000C94420038
:100040000C9442000C9442000C9442000C94420028
:100050000C944200C0F9A4B0999282D88090FF001D
:1000600011241FBECFE5D8E0DEBFCDBF20E0A0E663
:10007000B0E001C01D92A536B207E1F70E949500DD
:100080000C9441010C9400008FEF8ABB8BBB87B3AB
:100090008F6087BB88B38F6088BB83B7886083BF5E
:1000A00083B7846083BF87ED8CBF89B7826089BFC7
:1000B00008951F920F920FB60F9211242F938F93D2
:1000C0009F93EF93FF9388B38F6088BBE0916000AC
:1000D000F0E0EF59FF4FE081F0E0EC5AFF4FE49180
:1000E000EBBB28B381E090E00090600002C0880F75
:1000F000991F0A94E2F780958F70922F907F892B39
:1001000088BB809160008F5F843018F4809360001A
:1001100002C010926000FF91EF919F918F912F91FB
:100120000F900FBE0F901F9018950E944400789476
:1001300089E08093610088E08093620087E080938B
:10014000630086E0809364002FEF44E35CE021507D
:1001500040405040E1F700C000008AE08093610019
:100160008093620080936300809364008FEF94E338
:100170002CE0815090402040E1F700C0000028E8CA
:1001800033E1C8EED3E08AE0882E08E11CEF94E664
:10019000E92EF12C4CE9942E5AE0C52ED12C68E1C1
:1001A000762E76EF672EC901BE010E942D015B01FC
:1001B000662319F06093610002C080926100A09EE6
:1001C000F001A19EF00DB09EF00D1124E20FF31F7F
:1001D000CF01B7010E942D01462F662319F06093CD
:1001E000620009C0283E53E0350710F080E001C0EE
:1001F0008AE080936200592D5403C00111248E0FB0
:100200009F1FB6010E942D01662319F060936300C1
:1002100008C02436310510F080E001C08AE08093E8
:100220006300822F7A9C800D1124949E800D1124EE
:10023000669E800D1124809364008FE798E341E06F
:10024000815090404040E1F700C00000215031094A
:1002500009F0A9CF28E833E1A6CFAA1BBB1B51E1C7
:1002600007C0AA1FBB1FA617B70710F0A61BB70B26
:10027000881F991F5A95A9F780959095BC01CD01CB
:060280000895F894FFCF81
:00000001FF
