:100000000C942A000C9447000C9447000C94470071
:100010000C9447000C9447000C9447000C94470044
:100020000C9447000C9447000C9461000C9447001A
:100030000C9447000C9447000C9447000C94470024
:100040000C9447000C9447000C9447000C94470014
:100050000C94470011241FBECFE5D8E0DEBFCDBF12
:1000600010E0A0E6B0E0E8E8F2E002C005900D92F2
:10007000A037B107D9F720E0A0E7B0E001C01D929A
:10008000A437B207E1F70E9497000C9442010C9448
:1000900000008AB38F678ABB8BB38F678BBB84B337
:1000A0008F6084BB85B38F6085BB83B7886083BF57
:1000B00083B7856083BF85E38CBF89B7826089BFC2
:1000C00008951F920F920FB60F9211248F93EF9302
:1000D000FF9380916000809585BB809160008130A6
:1000E00019F4E09170000EC0823019F4E0917100B3
:1000F00009C0843019F4E091720004C0883039F4EA
:10010000E0917300F0E0EF59FF4F80818BBB80914D
:100110006000880F893008F081E080936000FF91D3
:10012000EF918F910F900FBE0F901F9018950E9426
:10013000490087B1876487B986B1876886B97894A2
:100140001092700088E0809371008093720010928A
:1001500073002FEF5FE584E5215050408040E1F7C8
:1001600000C0000083E08093700085E08093710000
:1001700089E08093720082E0809373009FEF2FE507
:1001800054E5915020405040E1F700C0000088EE57
:10019000C82E83E0D82E8824839498E1E92E9CEF22
:1001A000F92E04E610E02CE9B22ECAE0D0E038E1E6
:1001B000932E46EFA42E369A3699FECF24B135B150
:1001C000C901B6010E941A01462F611103C01092A5
:1001D000700002C0809270004E9DF0014F9DF00DA6
:1001E0001124E20FF31FCF01B8010E941A01362F2C
:1001F000609371005B2D5603C00111248E0F9F1F69
:10020000BE010E941A0160937200949E200D112479
:10021000B39E200D1124A69E200D1124209373005F
:100220008FEF9FEA21E0815090402040E1F700C02D
:100230000000C1CF97FB072E16F4009407D077FD7E
:1002400009D00E942E0107FC05D03EF490958195BF
:100250009F4F0895709561957F4F0895AA1BBB1B12
:1002600051E107C0AA1FBB1FA617B70710F0A61BB6
:10027000B70B881F991F5A95A9F780959095BC01D7
:08028000CD010895F894FFCFB1
:1002880001C0F9A4B0999282D880900000000000C3
:00000001FF
